{
  "transactions": [
    {
      "hash": "0xb28b8c0b654a90b375bed4ff2ef6ba239cbd811e4ca39ec58e3527ccdee6ef09",
      "transactionType": "CALL",
      "contractName": null,
      "contractAddress": "0x43056c70fe8cd9fddbfb7713336baa819642da27",
      "function": "grantRole(bytes32,address)",
      "arguments": [
        "0x928286c473ded01ff8bf61a1986f14a0579066072fa8261442d9fea514d93a4c",
        "0xb5f3feFeDB2a7c10BECd417215E5183f3E774E82"
      ],
      "transaction": {
        "from": "0x2c060c1ba11e508197d7ae5ef5dc86779025ec8d",
        "to": "0x43056c70fe8cd9fddbfb7713336baa819642da27",
        "gas": "0x125e0",
        "value": "0x0",
        "input": "0x2f2ff15d928286c473ded01ff8bf61a1986f14a0579066072fa8261442d9fea514d93a4c000000000000000000000000b5f3fefedb2a7c10becd417215e5183f3e774e82",
        "nonce": "0x2",
        "chainId": "0xaa044c"
      },
      "additionalContracts": [],
      "isFixedGasLimit": false
    },
    {
      "hash": "0xe37995fa991ddca106257516c4796ec63baec47632dedf64f442af46a5943838",
      "transactionType": "CALL",
      "contractName": null,
      "contractAddress": "0x43056c70fe8cd9fddbfb7713336baa819642da27",
      "function": "grantRole(bytes32,address)",
      "arguments": [
        "0xbb1ef2b79fa8154a13ffa50bd30e5f91ed93ff9b924bd04be671240cbc9d4b71",
        "0xb5f3feFeDB2a7c10BECd417215E5183f3E774E82"
      ],
      "transaction": {
        "from": "0x2c060c1ba11e508197d7ae5ef5dc86779025ec8d",
        "to": "0x43056c70fe8cd9fddbfb7713336baa819642da27",
        "gas": "0x125e0",
        "value": "0x0",
        "input": "0x2f2ff15dbb1ef2b79fa8154a13ffa50bd30e5f91ed93ff9b924bd04be671240cbc9d4b71000000000000000000000000b5f3fefedb2a7c10becd417215e5183f3e774e82",
        "nonce": "0x3",
        "chainId": "0xaa044c"
      },
      "additionalContracts": [],
      "isFixedGasLimit": false
    }
  ],
  "receipts": [
    {
      "status": "0x1",
      "cumulativeGasUsed": "0x17d3f",
      "logs": [
        {
          "address": "0x43056c70fe8cd9fddbfb7713336baa819642da27",
          "topics": [
            "0x2f8788117e7eff1d82e926ec794901d17c78024a50270940304540a733656f0d",
            "0x928286c473ded01ff8bf61a1986f14a0579066072fa8261442d9fea514d93a4c",
            "0x000000000000000000000000b5f3fefedb2a7c10becd417215e5183f3e774e82",
            "0x0000000000000000000000002c060c1ba11e508197d7ae5ef5dc86779025ec8d"
          ],
          "data": "0x",
          "blockHash": "0xa4ff51bbc81f27544c29973baf0dd9bc55332c8d3f534bb3af71e75e671d5e7d",
          "blockNumber": "0x1a22d72",
          "blockTimestamp": "0x6a232b06",
          "transactionHash": "0xb28b8c0b654a90b375bed4ff2ef6ba239cbd811e4ca39ec58e3527ccdee6ef09",
          "transactionIndex": "0x1",
          "logIndex": "0x0",
          "removed": false
        }
      ],
      "logsBloom": "0x00000004000000000000002000080000000000000000000000000000000000000000000000000008000000004000000000000000000000000000000000000000080000000000000000000000000000000000000000000000000000000000000000000010008000000000000000000000002000000000000000000008000000000000000000000000000000000000000000000000000000000000000000000000000000000000000000000000000000000000000000000000001000000000000000000000000000000000000000000040000000000000000100000010000000000000000000000000000000000000000000000000000020000000000000000000",
      "type": "0x2",
      "transactionHash": "0xb28b8c0b654a90b375bed4ff2ef6ba239cbd811e4ca39ec58e3527ccdee6ef09",
      "transactionIndex": "0x1",
      "blockHash": "0xa4ff51bbc81f27544c29973baf0dd9bc55332c8d3f534bb3af71e75e671d5e7d",
      "blockNumber": "0x1a22d72",
      "gasUsed": "0xc8f1",
      "effectiveGasPrice": "0xba43b7401",
      "blobGasUsed": "0x69",
      "from": "0x2c060c1ba11e508197d7ae5ef5dc86779025ec8d",
      "to": "0x43056c70fe8cd9fddbfb7713336baa819642da27",
      "contractAddress": null,
      "daFootprintGasScalar": "0x1",
      "l1BaseFeeScalar": "0x0",
      "l1BlobBaseFee": "0x3f34cd0",
      "l1BlobBaseFeeScalar": "0x0",
      "l1Fee": "0x0",
      "l1GasPrice": "0x3d3b4d04",
      "l1GasUsed": "0x697"
    },
    {
      "status": "0x1",
      "cumulativeGasUsed": "0x17d3f",
      "logs": [
        {
          "address": "0x43056c70fe8cd9fddbfb7713336baa819642da27",
          "topics": [
            "0x2f8788117e7eff1d82e926ec794901d17c78024a50270940304540a733656f0d",
            "0xbb1ef2b79fa8154a13ffa50bd30e5f91ed93ff9b924bd04be671240cbc9d4b71",
            "0x000000000000000000000000b5f3fefedb2a7c10becd417215e5183f3e774e82",
            "0x0000000000000000000000002c060c1ba11e508197d7ae5ef5dc86779025ec8d"
          ],
          "data": "0x",
          "blockHash": "0xfde3c97d213e98ab8be3a9f7fd07b1b0cbfdf738cbb53e400bd1388880bbaa6b",
          "blockNumber": "0x1a22d76",
          "blockTimestamp": "0x6a232b0a",
          "transactionHash": "0xe37995fa991ddca106257516c4796ec63baec47632dedf64f442af46a5943838",
          "transactionIndex": "0x1",
          "logIndex": "0x0",
          "removed": false
        }
      ],
      "logsBloom": "0x00000004000000000000000000080000000000000000000000000000000000000200000000000008000000004000000000000000000000000000000000000000000000000000000000000000000000040000000000000000000000000000000000000010000000000000000000020000002000000000000000000008000000000000000000000000000000000000000000000000000000000000000000000000000000000000000000000000000000000000000000000000001000000000000000000000000000000000000000000040000000000000000100000010000000000000000000000000000000000000000000000000000020000000000000000000",
      "type": "0x2",
      "transactionHash": "0xe37995fa991ddca106257516c4796ec63baec47632dedf64f442af46a5943838",
      "transactionIndex": "0x1",
      "blockHash": "0xfde3c97d213e98ab8be3a9f7fd07b1b0cbfdf738cbb53e400bd1388880bbaa6b",
      "blockNumber": "0x1a22d76",
      "gasUsed": "0xc8f1",
      "effectiveGasPrice": "0xba43b7401",
      "blobGasUsed": "0x69",
      "from": "0x2c060c1ba11e508197d7ae5ef5dc86779025ec8d",
      "to": "0x43056c70fe8cd9fddbfb7713336baa819642da27",
      "contractAddress": null,
      "daFootprintGasScalar": "0x1",
      "l1BaseFeeScalar": "0x0",
      "l1BlobBaseFee": "0x3f34cd0",
      "l1BlobBaseFeeScalar": "0x0",
      "l1Fee": "0x0",
      "l1GasPrice": "0x3d3b4d04",
      "l1GasUsed": "0x697"
    }
  ],
  "libraries": [],
  "pending": [],
  "returns": {},
  "timestamp": 1780689674989,
  "chain": 11142220,
  "commit": null
}